{"contracts/Marketplace.sol":{"Marketplace":{"abi":[{"inputs":[{"internalType":"address","name":"_gwcToken","type":"address"},{"internalType":"address","name":"_nftContract","type":"address"}],"stateMutability":"nonpayable","type":"constructor"},{"anonymous":false,"inputs":[{"indexed":true,"internalType":"uint256","name":"tokenId","type":"uint256"},{"indexed":true,"internalType":"address","name":"seller","type":"address"},{"indexed":false,"internalType":"uint256","name":"price","type":"uint256"}],"name":"NFTListed","type":"event"},{"anonymous":false,"inputs":[{"indexed":true,"internalType":"uint256","name":"tokenId","type":"uint256"},{"indexed":true,"internalType":"address","name":"seller","type":"address"},{"indexed":true,"internalType":"address","name":"buyer","type":"address"},{"indexed":false,"internalType":"uint256","name":"price","type":"uint256"}],"name":"NFTSold","type":"event"},{"anonymous":false,"inputs":[{"indexed":true,"internalType":"uint256","name":"tokenId","type":"uint256"},{"indexed":true,"internalType":"address","name":"seller","type":"address"}],"name":"NFTUnlisted","type":"event"},{"anonymous":false,"inputs":[{"indexed":true,"internalType":"address","name":"previousOwner","type":"address"},{"indexed":true,"internalType":"address","name":"newOwner","type":"address"}],"name":"OwnershipTransferred","type":"event"},{"inputs":[],"name":"BASIS_POINTS","outputs":[{"internalType":"uint256","name":"","type":"uint256"}],"stateMutability":"view","type":"function"},{"inputs":[{"internalType":"uint256","name":"tokenId","type":"uint256"}],"name":"buyNFT","outputs":[],"stateMutability":"nonpayable","type":"function"},{"inputs":[],"name":"gwcToken","outputs":[{"internalType":"contract IERC20","name":"","type":"address"}],"stateMutability":"view","type":"function"},{"inputs":[{"internalType":"uint256","name":"tokenId","type":"uint256"},{"internalType":"uint256","name":"price","type":"uint256"}],"name":"listNFT","outputs":[],"stateMutability":"nonpayable","type":"function"},{"inputs":[{"internalType":"uint256","name":"","type":"uint256"}],"name":"listings","outputs":[{"internalType":"address","name":"seller","type":"address"},{"internalType":"uint256","name":"price","type":"uint256"},{"internalType":"bool","name":"isActive","type":"bool"}],"stateMutability":"view","type":"function"},{"inputs":[],"name":"nftContract","outputs":[{"internalType":"contract IERC721","name":"","type":"address"}],"stateMutability":"view","type":"function"},{"inputs":[],"name":"owner","outputs":[{"internalType":"address","name":"","type":"address"}],"stateMutability":"view","type":"function"},{"inputs":[],"name":"platformFee","outputs":[{"internalType":"uint256","name":"","type":"uint256"}],"stateMutability":"view","type":"function"},{"inputs":[],"name":"renounceOwnership","outputs":[],"stateMutability":"nonpayable","type":"function"},{"inputs":[{"internalType":"address","name":"newOwner","type":"address"}],"name":"transferOwnership","outputs":[],"stateMutability":"nonpayable","type":"function"},{"inputs":[{"internalType":"uint256","name":"tokenId","type":"uint256"}],"name":"unlistNFT","outputs":[],"stateMutability":"nonpayable","type":"function"},{"inputs":[{"internalType":"uint256","name":"newFee","type":"uint256"}],"name":"updatePlatformFee","outputs":[],"stateMutability":"nonpayable","type":"function"}],"evm":{"bytecode":{"linkReferences":{},"object":"6080346100cc57601f610c6038819003918201601f19168301916001600160401b038311848410176100d15780849260409485528339810103126100cc57610052602061004b836100e7565b92016100e7565b60008054336001600160a01b0319808316821784556040519590946001600160a01b03949093859391908416907f8be0079c531659141344cd1fd0a4f28419497f9722a3daafe3b4186f6b6457e09080a36001805560c86005551683600254161760025516906003541617600355610b6490816100fc8239f35b600080fd5b634e487b7160e01b600052604160045260246000fd5b51906001600160a01b03821682036100cc5756fe608060408181526004908136101561001657600080fd5b600092833560e01c90816326232a2e146109e95750806351ed82881461060e578063715018a6146105b15780638da5cb5b1461058957806394383f1414610359578063961f09441461029e578063aa0b59881461023d578063d56d229d14610214578063de74e57b146101c8578063e1f1c4a7146101ab578063edcea0bc1461017e5763f2fde38b146100a857600080fd5b3461017a57602036600319011261017a576001600160a01b03823581811693919290849003610176576100d9610a05565b8315610124575050600054826bffffffffffffffffffffffff60a01b821617600055167f8be0079c531659141344cd1fd0a4f28419497f9722a3daafe3b4186f6b6457e0600080a380f35b906020608492519162461bcd60e51b8352820152602660248201527f4f776e61626c653a206e6577206f776e657220697320746865207a65726f206160448201526564647265737360d01b6064820152fd5b8480fd5b8280fd5b8382346101a757816003193601126101a75760025490516001600160a01b039091168152602090f35b5080fd5b8382346101a757816003193601126101a757602090516127108152f35b50903461017a57602036600319011261017a57606092818392358252602052209060018060a01b038254169160ff60026001830154920154169082519384526020840152151590820152f35b8382346101a757816003193601126101a75760035490516001600160a01b039091168152602090f35b50903461017a57602036600319011261017a5780359161025b610a05565b6103e8831161026c57505060055580f35b906020606492519162461bcd60e51b8352820152600c60248201526b08ccaca40e8dede40d0d2ced60a31b6044820152fd5b503461017a57602036600319011261017a5781358084526020839052818420549092906001600160a01b031633036103265790600291838552806020526102ec60ff84848820015416610ad5565b838552602052832001805460ff1916905533907fb765e971c123cbdac007f49987b1aac638149f995ba62034fc509604cac5f01e8380a380f35b6020606492519162461bcd60e51b8352820152600e60248201526d2737ba103a34329039b2b63632b960911b6044820152fd5b508290346101a757806003193601126101a75760035481516331a9108f60e11b815284358186018190526001600160a01b0395602480359592946020949089169085818481855afa90811561057f578991610562575b5089339116036105315786156104f05784829185519283809263020604bf60e21b82528a888301525afa9081156104e65788916104b9575b508830911603610479575060027f5f9c03de076f5063cd3ebcfe8ef7aa8af378e4b35a83c77ba9777e97083879a29495969783519061042582610a5d565b338252858201908982528583019460018652898c528752858b209251166bffffffffffffffffffffffff60a01b835416178255516001820155019051151560ff80198354169116179055519384523393a380f35b60649360189293519362461bcd60e51b85528401528201527f4d61726b6574706c616365206e6f7420617070726f76656400000000000000006044820152fd5b6104d99150853d87116104df575b6104d18183610a8f565b810190610ab1565b896103e7565b503d6104c7565b84513d8a823e3d90fd5b50606493601c9293519362461bcd60e51b85528401528201527f5072696365206d7573742062652067726561746572207468616e2030000000006044820152fd5b50606493600d9293519362461bcd60e51b85528401528201526c2737ba103a34329037bbb732b960991b6044820152fd5b6105799150863d88116104df576104d18183610a8f565b8a6103af565b85513d8b823e3d90fd5b8382346101a757816003193601126101a757905490516001600160a01b039091168152602090f35b833461060b578060031936011261060b576105ca610a05565b600080546001600160a01b0319811682556001600160a01b03167f8be0079c531659141344cd1fd0a4f28419497f9722a3daafe3b4186f6b6457e08280a380f35b80fd5b503461017a576020806003193601126109e557823590600280600154146109a257806001558286528482528386209084519061064982610a5d565b60018060a01b039283815416835261067860ff8360018401549388870194855201541615158089860152610ad5565b83835116331461095f57519660055480890290898204148915171561094c57612710900480890390898211610939578a876106ef8887541689895116958d519485809481936323b872dd60e01b9a8b8452338d850160409194939294606082019560018060a01b0380921683521660208201520152565b03925af190811561092f578c91610912575b50156108cf5783548b548a51848152338682019081529189166001600160a01b031660208301526040820193909352889183919089169082908f90829060600103925af19081156108c5578b91610898575b501561084b57898560035416918686511692803b1561017a578a519182526001600160a01b03909316848201908152336020820152604081018a90529092839182908490829060600103925af18015610841576107f3575b50858952845285882001805460ff1916905551935194855233949316927f8562eb94748e30bb0071e932744ce902b460c683474fcb3bfd567ffa16b1afb29190a46001805580f35b67ffffffffffffffff819a929a1161082e578752977f8562eb94748e30bb0071e932744ce902b460c683474fcb3bfd567ffa16b1afb26107ab565b634e487b7160e01b825260418a52602482fd5b88513d8c823e3d90fd5b875162461bcd60e51b8152808301879052602160248201527f546f6b656e207472616e7366657220746f20706c6174666f726d206661696c656044820152601960fa1b6064820152608490fd5b6108b89150873d89116108be575b6108b08183610a8f565b810190610b16565b38610753565b503d6108a6565b89513d8d823e3d90fd5b885162461bcd60e51b8152808401889052601f60248201527f546f6b656e207472616e7366657220746f2073656c6c6572206661696c6564006044820152606490fd5b6109299150883d8a116108be576108b08183610a8f565b38610701565b8a513d8e823e3d90fd5b634e487b7160e01b8b526011835260248bfd5b634e487b7160e01b8a526011825260248afd5b865162461bcd60e51b8152808901869052601760248201527f43616e6e6f742062757920796f7572206f776e204e46540000000000000000006044820152606490fd5b835162461bcd60e51b8152808601839052601f60248201527f5265656e7472616e637947756172643a207265656e7472616e742063616c6c006044820152606490fd5b8380fd5b8490346101a757816003193601126101a7576020906005548152f35b6000546001600160a01b03163303610a1957565b606460405162461bcd60e51b815260206004820152602060248201527f4f776e61626c653a2063616c6c6572206973206e6f7420746865206f776e65726044820152fd5b6060810190811067ffffffffffffffff821117610a7957604052565b634e487b7160e01b600052604160045260246000fd5b90601f8019910116810190811067ffffffffffffffff821117610a7957604052565b90816020910312610ad057516001600160a01b0381168103610ad05790565b600080fd5b15610adc57565b60405162461bcd60e51b81526020600482015260126024820152714c697374696e67206e6f742061637469766560701b6044820152606490fd5b90816020910312610ad057518015158103610ad0579056fea2646970667358221220b4cea870d0c747359da5318808d3fc493cebf9b98f6c7965375b22214217f10b64736f6c63430008140033","opcodes":"PUSH1 0x80 CALLVALUE PUSH2 0xCC JUMPI PUSH1 0x1F PUSH2 0xC60 CODESIZE DUP2 SWAP1 SUB SWAP2 DUP3 ADD PUSH1 0x1F NOT AND DUP4 ADD SWAP2 PUSH1 0x1 PUSH1 0x1 PUSH1 0x40 SHL SUB DUP4 GT DUP5 DUP5 LT OR PUSH2 0xD1 JUMPI DUP1 DUP5 SWAP3 PUSH1 0x40 SWAP5 DUP6 MSTORE DUP4 CODECOPY DUP2 ADD SUB SLT PUSH2 0xCC JUMPI PUSH2 0x52 PUSH1 0x20 PUSH2 0x4B DUP4 PUSH2 0xE7 JUMP JUMPDEST SWAP3 ADD PUSH2 0xE7 JUMP JUMPDEST PUSH1 0x0 DUP1 SLOAD CALLER PUSH1 0x1 PUSH1 0x1 PUSH1 0xA0 SHL SUB NOT DUP1 DUP4 AND DUP3 OR DUP5 SSTORE PUSH1 0x40 MLOAD SWAP6 SWAP1 SWAP5 PUSH1 0x1 PUSH1 0x1 PUSH1 0xA0 SHL SUB SWAP5 SWAP1 SWAP4 DUP6 SWAP4 SWAP2 SWAP1 DUP5 AND SWAP1 PUSH32 0x8BE0079C531659141344CD1FD0A4F28419497F9722A3DAAFE3B4186F6B6457E0 SWAP1 DUP1 LOG3 PUSH1 0x1 DUP1 SSTORE PUSH1 0xC8 PUSH1 0x5 SSTORE AND DUP4 PUSH1 0x2 SLOAD AND OR PUSH1 0x2 SSTORE AND SWAP1 PUSH1 0x3 SLOAD AND OR PUSH1 0x3 SSTORE PUSH2 0xB64 SWAP1 DUP2 PUSH2 0xFC DUP3 CODECOPY RETURN JUMPDEST PUSH1 0x0 DUP1 REVERT JUMPDEST PUSH4 0x4E487B71 PUSH1 0xE0 SHL PUSH1 0x0 MSTORE PUSH1 0x41 PUSH1 0x4 MSTORE PUSH1 0x24 PUSH1 0x0 REVERT JUMPDEST MLOAD SWAP1 PUSH1 0x1 PUSH1 0x1 PUSH1 0xA0 SHL SUB DUP3 AND DUP3 SUB PUSH2 0xCC JUMPI JUMP INVALID PUSH1 0x80 PUSH1 0x40 DUP2 DUP2 MSTORE PUSH1 0x4 SWAP1 DUP2 CALLDATASIZE LT ISZERO PUSH2 0x16 JUMPI PUSH1 0x0 DUP1 REVERT JUMPDEST PUSH1 0x0 SWAP3 DUP4 CALLDATALOAD PUSH1 0xE0 SHR SWAP1 DUP2 PUSH4 0x26232A2E EQ PUSH2 0x9E9 JUMPI POP DUP1 PUSH4 0x51ED8288 EQ PUSH2 0x60E JUMPI DUP1 PUSH4 0x715018A6 EQ PUSH2 0x5B1 JUMPI DUP1 PUSH4 0x8DA5CB5B EQ PUSH2 0x589 JUMPI DUP1 PUSH4 0x94383F14 EQ PUSH2 0x359 JUMPI DUP1 PUSH4 0x961F0944 EQ PUSH2 0x29E JUMPI DUP1 PUSH4 0xAA0B5988 EQ PUSH2 0x23D JUMPI DUP1 PUSH4 0xD56D229D EQ PUSH2 0x214 JUMPI DUP1 PUSH4 0xDE74E57B EQ PUSH2 0x1C8 JUMPI DUP1 PUSH4 0xE1F1C4A7 EQ PUSH2 0x1AB JUMPI DUP1 PUSH4 0xEDCEA0BC EQ PUSH2 0x17E JUMPI PUSH4 0xF2FDE38B EQ PUSH2 0xA8 JUMPI PUSH1 0x0 DUP1 REVERT JUMPDEST CALLVALUE PUSH2 0x17A JUMPI PUSH1 0x20 CALLDATASIZE PUSH1 0x3 NOT ADD SLT PUSH2 0x17A JUMPI PUSH1 0x1 PUSH1 0x1 PUSH1 0xA0 SHL SUB DUP3 CALLDATALOAD DUP2 DUP2 AND SWAP4 SWAP2 SWAP3 SWAP1 DUP5 SWAP1 SUB PUSH2 0x176 JUMPI PUSH2 0xD9 PUSH2 0xA05 JUMP JUMPDEST DUP4 ISZERO PUSH2 0x124 JUMPI POP POP PUSH1 0x0 SLOAD DUP3 PUSH12 0xFFFFFFFFFFFFFFFFFFFFFFFF PUSH1 0xA0 SHL DUP3 AND OR PUSH1 0x0 SSTORE AND PUSH32 0x8BE0079C531659141344CD1FD0A4F28419497F9722A3DAAFE3B4186F6B6457E0 PUSH1 0x0 DUP1 LOG3 DUP1 RETURN JUMPDEST SWAP1 PUSH1 0x20 PUSH1 0x84 SWAP3 MLOAD SWAP2 PUSH3 0x461BCD PUSH1 0xE5 SHL DUP4 MSTORE DUP3 ADD MSTORE PUSH1 0x26 PUSH1 0x24 DUP3 ADD MSTORE PUSH32 0x4F776E61626C653A206E6577206F776E657220697320746865207A65726F2061 PUSH1 0x44 DUP3 ADD MSTORE PUSH6 0x646472657373 PUSH1 0xD0 SHL PUSH1 0x64 DUP3 ADD MSTORE REVERT JUMPDEST DUP5 DUP1 REVERT JUMPDEST DUP3 DUP1 REVERT JUMPDEST DUP4 DUP3 CALLVALUE PUSH2 0x1A7 JUMPI DUP2 PUSH1 0x3 NOT CALLDATASIZE ADD SLT PUSH2 0x1A7 JUMPI PUSH1 0x2 SLOAD SWAP1 MLOAD PUSH1 0x1 PUSH1 0x1 PUSH1 0xA0 SHL SUB SWAP1 SWAP2 AND DUP2 MSTORE PUSH1 0x20 SWAP1 RETURN JUMPDEST POP DUP1 REVERT JUMPDEST DUP4 DUP3 CALLVALUE PUSH2 0x1A7 JUMPI DUP2 PUSH1 0x3 NOT CALLDATASIZE ADD SLT PUSH2 0x1A7 JUMPI PUSH1 0x20 SWAP1 MLOAD PUSH2 0x2710 DUP2 MSTORE RETURN JUMPDEST POP SWAP1 CALLVALUE PUSH2 0x17A JUMPI PUSH1 0x20 CALLDATASIZE PUSH1 0x3 NOT ADD SLT PUSH2 0x17A JUMPI PUSH1 0x60 SWAP3 DUP2 DUP4 SWAP3 CALLDATALOAD DUP3 MSTORE PUSH1 0x20 MSTORE KECCAK256 SWAP1 PUSH1 0x1 DUP1 PUSH1 0xA0 SHL SUB DUP3 SLOAD AND SWAP2 PUSH1 0xFF PUSH1 0x2 PUSH1 0x1 DUP4 ADD SLOAD SWAP3 ADD SLOAD AND SWAP1 DUP3 MLOAD SWAP4 DUP5 MSTORE PUSH1 0x20 DUP5 ADD MSTORE ISZERO ISZERO SWAP1 DUP3 ADD MSTORE RETURN JUMPDEST DUP4 DUP3 CALLVALUE PUSH2 0x1A7 JUMPI DUP2 PUSH1 0x3 NOT CALLDATASIZE ADD SLT PUSH2 0x1A7 JUMPI PUSH1 0x3 SLOAD SWAP1 MLOAD PUSH1 0x1 PUSH1 0x1 PUSH1 0xA0 SHL SUB SWAP1 SWAP2 AND DUP2 MSTORE PUSH1 0x20 SWAP1 RETURN JUMPDEST POP SWAP1 CALLVALUE PUSH2 0x17A JUMPI PUSH1 0x20 CALLDATASIZE PUSH1 0x3 NOT ADD SLT PUSH2 0x17A JUMPI DUP1 CALLDATALOAD SWAP2 PUSH2 0x25B PUSH2 0xA05 JUMP JUMPDEST PUSH2 0x3E8 DUP4 GT PUSH2 0x26C JUMPI POP POP PUSH1 0x5 SSTORE DUP1 RETURN JUMPDEST SWAP1 PUSH1 0x20 PUSH1 0x64 SWAP3 MLOAD SWAP2 PUSH3 0x461BCD PUSH1 0xE5 SHL DUP4 MSTORE DUP3 ADD MSTORE PUSH1 0xC PUSH1 0x24 DUP3 ADD MSTORE PUSH12 0x8CCACA40E8DEDE40D0D2CED PUSH1 0xA3 SHL PUSH1 0x44 DUP3 ADD MSTORE REVERT JUMPDEST POP CALLVALUE PUSH2 0x17A JUMPI PUSH1 0x20 CALLDATASIZE PUSH1 0x3 NOT ADD SLT PUSH2 0x17A JUMPI DUP2 CALLDATALOAD DUP1 DUP5 MSTORE PUSH1 0x20 DUP4 SWAP1 MSTORE DUP2 DUP5 KECCAK256 SLOAD SWAP1 SWAP3 SWAP1 PUSH1 0x1 PUSH1 0x1 PUSH1 0xA0 SHL SUB AND CALLER SUB PUSH2 0x326 JUMPI SWAP1 PUSH1 0x2 SWAP2 DUP4 DUP6 MSTORE DUP1 PUSH1 0x20 MSTORE PUSH2 0x2EC PUSH1 0xFF DUP5 DUP5 DUP9 KECCAK256 ADD SLOAD AND PUSH2 0xAD5 JUMP JUMPDEST DUP4 DUP6 MSTORE PUSH1 0x20 MSTORE DUP4 KECCAK256 ADD DUP1 SLOAD PUSH1 0xFF NOT AND SWAP1 SSTORE CALLER SWAP1 PUSH32 0xB765E971C123CBDAC007F49987B1AAC638149F995BA62034FC509604CAC5F01E DUP4 DUP1 LOG3 DUP1 RETURN JUMPDEST PUSH1 0x20 PUSH1 0x64 SWAP3 MLOAD SWAP2 PUSH3 0x461BCD PUSH1 0xE5 SHL DUP4 MSTORE DUP3 ADD MSTORE PUSH1 0xE PUSH1 0x24 DUP3 ADD MSTORE PUSH14 0x2737BA103A34329039B2B63632B9 PUSH1 0x91 SHL PUSH1 0x44 DUP3 ADD MSTORE REVERT JUMPDEST POP DUP3 SWAP1 CALLVALUE PUSH2 0x1A7 JUMPI DUP1 PUSH1 0x3 NOT CALLDATASIZE ADD SLT PUSH2 0x1A7 JUMPI PUSH1 0x3 SLOAD DUP2 MLOAD PUSH4 0x31A9108F PUSH1 0xE1 SHL DUP2 MSTORE DUP5 CALLDATALOAD DUP2 DUP7 ADD DUP2 SWAP1 MSTORE PUSH1 0x1 PUSH1 0x1 PUSH1 0xA0 SHL SUB SWAP6 PUSH1 0x24 DUP1 CALLDATALOAD SWAP6 SWAP3 SWAP5 PUSH1 0x20 SWAP5 SWAP1 DUP10 AND SWAP1 DUP6 DUP2 DUP5 DUP2 DUP6 GAS STATICCALL SWAP1 DUP2 ISZERO PUSH2 0x57F JUMPI DUP10 SWAP2 PUSH2 0x562 JUMPI JUMPDEST POP DUP10 CALLER SWAP2 AND SUB PUSH2 0x531 JUMPI DUP7 ISZERO PUSH2 0x4F0 JUMPI DUP5 DUP3 SWAP2 DUP6 MLOAD SWAP3 DUP4 DUP1 SWAP3 PUSH4 0x20604BF PUSH1 0xE2 SHL DUP3 MSTORE DUP11 DUP9 DUP4 ADD MSTORE GAS STATICCALL SWAP1 DUP2 ISZERO PUSH2 0x4E6 JUMPI DUP9 SWAP2 PUSH2 0x4B9 JUMPI JUMPDEST POP DUP9 ADDRESS SWAP2 AND SUB PUSH2 0x479 JUMPI POP PUSH1 0x2 PUSH32 0x5F9C03DE076F5063CD3EBCFE8EF7AA8AF378E4B35A83C77BA9777E97083879A2 SWAP5 SWAP6 SWAP7 SWAP8 DUP4 MLOAD SWAP1 PUSH2 0x425 DUP3 PUSH2 0xA5D JUMP JUMPDEST CALLER DUP3 MSTORE DUP6 DUP3 ADD SWAP1 DUP10 DUP3 MSTORE DUP6 DUP4 ADD SWAP5 PUSH1 0x1 DUP7 MSTORE DUP10 DUP13 MSTORE DUP8 MSTORE DUP6 DUP12 KECCAK256 SWAP3 MLOAD AND PUSH12 0xFFFFFFFFFFFFFFFFFFFFFFFF PUSH1 0xA0 SHL DUP4 SLOAD AND OR DUP3 SSTORE MLOAD PUSH1 0x1 DUP3 ADD SSTORE ADD SWAP1 MLOAD ISZERO ISZERO PUSH1 0xFF DUP1 NOT DUP4 SLOAD AND SWAP2 AND OR SWAP1 SSTORE MLOAD SWAP4 DUP5 MSTORE CALLER SWAP4 LOG3 DUP1 RETURN JUMPDEST PUSH1 0x64 SWAP4 PUSH1 0x18 SWAP3 SWAP4 MLOAD SWAP4 PUSH3 0x461BCD PUSH1 0xE5 SHL DUP6 MSTORE DUP5 ADD MSTORE DUP3 ADD MSTORE PUSH32 0x4D61726B6574706C616365206E6F7420617070726F7665640000000000000000 PUSH1 0x44 DUP3 ADD MSTORE REVERT JUMPDEST PUSH2 0x4D9 SWAP2 POP DUP6 RETURNDATASIZE DUP8 GT PUSH2 0x4DF JUMPI JUMPDEST PUSH2 0x4D1 DUP2 DUP4 PUSH2 0xA8F JUMP JUMPDEST DUP2 ADD SWAP1 PUSH2 0xAB1 JUMP JUMPDEST DUP10 PUSH2 0x3E7 JUMP JUMPDEST POP RETURNDATASIZE PUSH2 0x4C7 JUMP JUMPDEST DUP5 MLOAD RETURNDATASIZE DUP11 DUP3 RETURNDATACOPY RETURNDATASIZE SWAP1 REVERT JUMPDEST POP PUSH1 0x64 SWAP4 PUSH1 0x1C SWAP3 SWAP4 MLOAD SWAP4 PUSH3 0x461BCD PUSH1 0xE5 SHL DUP6 MSTORE DUP5 ADD MSTORE DUP3 ADD MSTORE PUSH32 0x5072696365206D7573742062652067726561746572207468616E203000000000 PUSH1 0x44 DUP3 ADD MSTORE REVERT JUMPDEST POP PUSH1 0x64 SWAP4 PUSH1 0xD SWAP3 SWAP4 MLOAD SWAP4 PUSH3 0x461BCD PUSH1 0xE5 SHL DUP6 MSTORE DUP5 ADD MSTORE DUP3 ADD MSTORE PUSH13 0x2737BA103A34329037BBB732B9 PUSH1 0x99 SHL PUSH1 0x44 DUP3 ADD MSTORE REVERT JUMPDEST PUSH2 0x579 SWAP2 POP DUP7 RETURNDATASIZE DUP9 GT PUSH2 0x4DF JUMPI PUSH2 0x4D1 DUP2 DUP4 PUSH2 0xA8F JUMP JUMPDEST DUP11 PUSH2 0x3AF JUMP JUMPDEST DUP6 MLOAD RETURNDATASIZE DUP12 DUP3 RETURNDATACOPY RETURNDATASIZE SWAP1 REVERT JUMPDEST DUP4 DUP3 CALLVALUE PUSH2 0x1A7 JUMPI DUP2 PUSH1 0x3 NOT CALLDATASIZE ADD SLT PUSH2 0x1A7 JUMPI SWAP1 SLOAD SWAP1 MLOAD PUSH1 0x1 PUSH1 0x1 PUSH1 0xA0 SHL SUB SWAP1 SWAP2 AND DUP2 MSTORE PUSH1 0x20 SWAP1 RETURN JUMPDEST DUP4 CALLVALUE PUSH2 0x60B JUMPI DUP1 PUSH1 0x3 NOT CALLDATASIZE ADD SLT PUSH2 0x60B JUMPI PUSH2 0x5CA PUSH2 0xA05 JUMP JUMPDEST PUSH1 0x0 DUP1 SLOAD PUSH1 0x1 PUSH1 0x1 PUSH1 0xA0 SHL SUB NOT DUP2 AND DUP3 SSTORE PUSH1 0x1 PUSH1 0x1 PUSH1 0xA0 SHL SUB AND PUSH32 0x8BE0079C531659141344CD1FD0A4F28419497F9722A3DAAFE3B4186F6B6457E0 DUP3 DUP1 LOG3 DUP1 RETURN JUMPDEST DUP1 REVERT JUMPDEST POP CALLVALUE PUSH2 0x17A JUMPI PUSH1 0x20 DUP1 PUSH1 0x3 NOT CALLDATASIZE ADD SLT PUSH2 0x9E5 JUMPI DUP3 CALLDATALOAD SWAP1 PUSH1 0x2 DUP1 PUSH1 0x1 SLOAD EQ PUSH2 0x9A2 JUMPI DUP1 PUSH1 0x1 SSTORE DUP3 DUP7 MSTORE DUP5 DUP3 MSTORE DUP4 DUP7 KECCAK256 SWAP1 DUP5 MLOAD SWAP1 PUSH2 0x649 DUP3 PUSH2 0xA5D JUMP JUMPDEST PUSH1 0x1 DUP1 PUSH1 0xA0 SHL SUB SWAP3 DUP4 DUP2 SLOAD AND DUP4 MSTORE PUSH2 0x678 PUSH1 0xFF DUP4 PUSH1 0x1 DUP5 ADD SLOAD SWAP4 DUP9 DUP8 ADD SWAP5 DUP6 MSTORE ADD SLOAD AND ISZERO ISZERO DUP1 DUP10 DUP7 ADD MSTORE PUSH2 0xAD5 JUMP JUMPDEST DUP4 DUP4 MLOAD AND CALLER EQ PUSH2 0x95F JUMPI MLOAD SWAP7 PUSH1 0x5 SLOAD DUP1 DUP10 MUL SWAP1 DUP10 DUP3 DIV EQ DUP10 ISZERO OR ISZERO PUSH2 0x94C JUMPI PUSH2 0x2710 SWAP1 DIV DUP1 DUP10 SUB SWAP1 DUP10 DUP3 GT PUSH2 0x939 JUMPI DUP11 DUP8 PUSH2 0x6EF DUP9 DUP8 SLOAD AND DUP10 DUP10 MLOAD AND SWAP6 DUP14 MLOAD SWAP5 DUP6 DUP1 SWAP5 DUP2 SWAP4 PUSH4 0x23B872DD PUSH1 0xE0 SHL SWAP11 DUP12 DUP5 MSTORE CALLER DUP14 DUP6 ADD PUSH1 0x40 SWAP2 SWAP5 SWAP4 SWAP3 SWAP5 PUSH1 0x60 DUP3 ADD SWAP6 PUSH1 0x1 DUP1 PUSH1 0xA0 SHL SUB DUP1 SWAP3 AND DUP4 MSTORE AND PUSH1 0x20 DUP3 ADD MSTORE ADD MSTORE JUMP JUMPDEST SUB SWAP3 GAS CALL SWAP1 DUP2 ISZERO PUSH2 0x92F JUMPI DUP13 SWAP2 PUSH2 0x912 JUMPI JUMPDEST POP ISZERO PUSH2 0x8CF JUMPI DUP4 SLOAD DUP12 SLOAD DUP11 MLOAD DUP5 DUP2 MSTORE CALLER DUP7 DUP3 ADD SWAP1 DUP2 MSTORE SWAP2 DUP10 AND PUSH1 0x1 PUSH1 0x1 PUSH1 0xA0 SHL SUB AND PUSH1 0x20 DUP4 ADD MSTORE PUSH1 0x40 DUP3 ADD SWAP4 SWAP1 SWAP4 MSTORE DUP9 SWAP2 DUP4 SWAP2 SWAP1 DUP10 AND SWAP1 DUP3 SWAP1 DUP16 SWAP1 DUP3 SWAP1 PUSH1 0x60 ADD SUB SWAP3 GAS CALL SWAP1 DUP2 ISZERO PUSH2 0x8C5 JUMPI DUP12 SWAP2 PUSH2 0x898 JUMPI JUMPDEST POP ISZERO PUSH2 0x84B JUMPI DUP10 DUP6 PUSH1 0x3 SLOAD AND SWAP2 DUP7 DUP7 MLOAD AND SWAP3 DUP1 EXTCODESIZE ISZERO PUSH2 0x17A JUMPI DUP11 MLOAD SWAP2 DUP3 MSTORE PUSH1 0x1 PUSH1 0x1 PUSH1 0xA0 SHL SUB SWAP1 SWAP4 AND DUP5 DUP3 ADD SWAP1 DUP2 MSTORE CALLER PUSH1 0x20 DUP3 ADD MSTORE PUSH1 0x40 DUP2 ADD DUP11 SWAP1 MSTORE SWAP1 SWAP3 DUP4 SWAP2 DUP3 SWAP1 DUP5 SWAP1 DUP3 SWAP1 PUSH1 0x60 ADD SUB SWAP3 GAS CALL DUP1 ISZERO PUSH2 0x841 JUMPI PUSH2 0x7F3 JUMPI JUMPDEST POP DUP6 DUP10 MSTORE DUP5 MSTORE DUP6 DUP9 KECCAK256 ADD DUP1 SLOAD PUSH1 0xFF NOT AND SWAP1 SSTORE MLOAD SWAP4 MLOAD SWAP5 DUP6 MSTORE CALLER SWAP5 SWAP4 AND SWAP3 PUSH32 0x8562EB94748E30BB0071E932744CE902B460C683474FCB3BFD567FFA16B1AFB2 SWAP2 SWAP1 LOG4 PUSH1 0x1 DUP1 SSTORE DUP1 RETURN JUMPDEST PUSH8 0xFFFFFFFFFFFFFFFF DUP2 SWAP11 SWAP3 SWAP11 GT PUSH2 0x82E JUMPI DUP8 MSTORE SWAP8 PUSH32 0x8562EB94748E30BB0071E932744CE902B460C683474FCB3BFD567FFA16B1AFB2 PUSH2 0x7AB JUMP JUMPDEST PUSH4 0x4E487B71 PUSH1 0xE0 SHL DUP3 MSTORE PUSH1 0x41 DUP11 MSTORE PUSH1 0x24 DUP3 REVERT JUMPDEST DUP9 MLOAD RETURNDATASIZE DUP13 DUP3 RETURNDATACOPY RETURNDATASIZE SWAP1 REVERT JUMPDEST DUP8 MLOAD PUSH3 0x461BCD PUSH1 0xE5 SHL DUP2 MSTORE DUP1 DUP4 ADD DUP8 SWAP1 MSTORE PUSH1 0x21 PUSH1 0x24 DUP3 ADD MSTORE PUSH32 0x546F6B656E207472616E7366657220746F20706C6174666F726D206661696C65 PUSH1 0x44 DUP3 ADD MSTORE PUSH1 0x19 PUSH1 0xFA SHL PUSH1 0x64 DUP3 ADD MSTORE PUSH1 0x84 SWAP1 REVERT JUMPDEST PUSH2 0x8B8 SWAP2 POP DUP8 RETURNDATASIZE DUP10 GT PUSH2 0x8BE JUMPI JUMPDEST PUSH2 0x8B0 DUP2 DUP4 PUSH2 0xA8F JUMP JUMPDEST DUP2 ADD SWAP1 PUSH2 0xB16 JUMP JUMPDEST CODESIZE PUSH2 0x753 JUMP JUMPDEST POP RETURNDATASIZE PUSH2 0x8A6 JUMP JUMPDEST DUP10 MLOAD RETURNDATASIZE DUP14 DUP3 RETURNDATACOPY RETURNDATASIZE SWAP1 REVERT JUMPDEST DUP9 MLOAD PUSH3 0x461BCD PUSH1 0xE5 SHL DUP2 MSTORE DUP1 DUP5 ADD DUP9 SWAP1 MSTORE PUSH1 0x1F PUSH1 0x24 DUP3 ADD MSTORE PUSH32 0x546F6B656E207472616E7366657220746F2073656C6C6572206661696C656400 PUSH1 0x44 DUP3 ADD MSTORE PUSH1 0x64 SWAP1 REVERT JUMPDEST PUSH2 0x929 SWAP2 POP DUP9 RETURNDATASIZE DUP11 GT PUSH2 0x8BE JUMPI PUSH2 0x8B0 DUP2 DUP4 PUSH2 0xA8F JUMP JUMPDEST CODESIZE PUSH2 0x701 JUMP JUMPDEST DUP11 MLOAD RETURNDATASIZE DUP15 DUP3 RETURNDATACOPY RETURNDATASIZE SWAP1 REVERT JUMPDEST PUSH4 0x4E487B71 PUSH1 0xE0 SHL DUP12 MSTORE PUSH1 0x11 DUP4 MSTORE PUSH1 0x24 DUP12 REVERT JUMPDEST PUSH4 0x4E487B71 PUSH1 0xE0 SHL DUP11 MSTORE PUSH1 0x11 DUP3 MSTORE PUSH1 0x24 DUP11 REVERT JUMPDEST DUP7 MLOAD PUSH3 0x461BCD PUSH1 0xE5 SHL DUP2 MSTORE DUP1 DUP10 ADD DUP7 SWAP1 MSTORE PUSH1 0x17 PUSH1 0x24 DUP3 ADD MSTORE PUSH32 0x43616E6E6F742062757920796F7572206F776E204E4654000000000000000000 PUSH1 0x44 DUP3 ADD MSTORE PUSH1 0x64 SWAP1 REVERT JUMPDEST DUP4 MLOAD PUSH3 0x461BCD PUSH1 0xE5 SHL DUP2 MSTORE DUP1 DUP7 ADD DUP4 SWAP1 MSTORE PUSH1 0x1F PUSH1 0x24 DUP3 ADD MSTORE PUSH32 0x5265656E7472616E637947756172643A207265656E7472616E742063616C6C00 PUSH1 0x44 DUP3 ADD MSTORE PUSH1 0x64 SWAP1 REVERT JUMPDEST DUP4 DUP1 REVERT JUMPDEST DUP5 SWAP1 CALLVALUE PUSH2 0x1A7 JUMPI DUP2 PUSH1 0x3 NOT CALLDATASIZE ADD SLT PUSH2 0x1A7 JUMPI PUSH1 0x20 SWAP1 PUSH1 0x5 SLOAD DUP2 MSTORE RETURN JUMPDEST PUSH1 0x0 SLOAD PUSH1 0x1 PUSH1 0x1 PUSH1 0xA0 SHL SUB AND CALLER SUB PUSH2 0xA19 JUMPI JUMP JUMPDEST PUSH1 0x64 PUSH1 0x40 MLOAD PUSH3 0x461BCD PUSH1 0xE5 SHL DUP2 MSTORE PUSH1 0x20 PUSH1 0x4 DUP3 ADD MSTORE PUSH1 0x20 PUSH1 0x24 DUP3 ADD MSTORE PUSH32 0x4F776E61626C653A2063616C6C6572206973206E6F7420746865206F776E6572 PUSH1 0x44 DUP3 ADD MSTORE REVERT JUMPDEST PUSH1 0x60 DUP2 ADD SWAP1 DUP2 LT PUSH8 0xFFFFFFFFFFFFFFFF DUP3 GT OR PUSH2 0xA79 JUMPI PUSH1 0x40 MSTORE JUMP JUMPDEST PUSH4 0x4E487B71 PUSH1 0xE0 SHL PUSH1 0x0 MSTORE PUSH1 0x41 PUSH1 0x4 MSTORE PUSH1 0x24 PUSH1 0x0 REVERT JUMPDEST SWAP1 PUSH1 0x1F DUP1 NOT SWAP2 ADD AND DUP2 ADD SWAP1 DUP2 LT PUSH8 0xFFFFFFFFFFFFFFFF DUP3 GT OR PUSH2 0xA79 JUMPI PUSH1 0x40 MSTORE JUMP JUMPDEST SWAP1 DUP2 PUSH1 0x20 SWAP2 SUB SLT PUSH2 0xAD0 JUMPI MLOAD PUSH1 0x1 PUSH1 0x1 PUSH1 0xA0 SHL SUB DUP2 AND DUP2 SUB PUSH2 0xAD0 JUMPI SWAP1 JUMP JUMPDEST PUSH1 0x0 DUP1 REVERT JUMPDEST ISZERO PUSH2 0xADC JUMPI JUMP JUMPDEST PUSH1 0x40 MLOAD PUSH3 0x461BCD PUSH1 0xE5 SHL DUP2 MSTORE PUSH1 0x20 PUSH1 0x4 DUP3 ADD MSTORE PUSH1 0x12 PUSH1 0x24 DUP3 ADD MSTORE PUSH18 0x4C697374696E67206E6F7420616374697665 PUSH1 0x70 SHL PUSH1 0x44 DUP3 ADD MSTORE PUSH1 0x64 SWAP1 REVERT JUMPDEST SWAP1 DUP2 PUSH1 0x20 SWAP2 SUB SLT PUSH2 0xAD0 JUMPI MLOAD DUP1 ISZERO ISZERO DUP2 SUB PUSH2 0xAD0 JUMPI SWAP1 JUMP INVALID LOG2 PUSH5 0x6970667358 0x22 SLT KECCAK256 0xB4 0xCE 0xA8 PUSH17 0xD0C747359DA5318808D3FC493CEBF9B98F PUSH13 0x7965375B22214217F10B64736F PUSH13 0x63430008140033000000000000 "},"methodIdentifiers":{"BASIS_POINTS()":"e1f1c4a7","buyNFT(uint256)":"51ed8288","gwcToken()":"edcea0bc","listNFT(uint256,uint256)":"94383f14","listings(uint256)":"de74e57b","nftContract()":"d56d229d","owner()":"8da5cb5b","platformFee()":"26232a2e","renounceOwnership()":"715018a6","transferOwnership(address)":"f2fde38b","unlistNFT(uint256)":"961f0944","updatePlatformFee(uint256)":"aa0b5988"}}}}}