{"contracts/WorkoutRewards.sol":{"WorkoutRewards":{"abi":[{"inputs":[{"internalType":"address","name":"_gwcToken","type":"address"}],"stateMutability":"nonpayable","type":"constructor"},{"anonymous":false,"inputs":[{"indexed":false,"internalType":"address","name":"user","type":"address"},{"indexed":false,"internalType":"uint256","name":"totalReps","type":"uint256"},{"indexed":false,"internalType":"uint256","name":"totalWeight","type":"uint256"},{"indexed":false,"internalType":"uint256","name":"totalTime","type":"uint256"},{"indexed":false,"internalType":"uint256","name":"totalDistance","type":"uint256"},{"indexed":false,"internalType":"uint256","name":"tokens","type":"uint256"}],"name":"WorkoutRewarded","type":"event"},{"inputs":[{"internalType":"uint256","name":"reps","type":"uint256"},{"internalType":"uint256","name":"weight","type":"uint256"},{"internalType":"uint256","name":"time","type":"uint256"},{"internalType":"uint256","name":"distance","type":"uint256"}],"name":"calculateReward","outputs":[{"internalType":"uint256","name":"","type":"uint256"}],"stateMutability":"view","type":"function"},{"inputs":[],"name":"distanceRewardRate","outputs":[{"internalType":"uint256","name":"","type":"uint256"}],"stateMutability":"view","type":"function"},{"inputs":[],"name":"gwcToken","outputs":[{"internalType":"contract GWCToken","name":"","type":"address"}],"stateMutability":"view","type":"function"},{"inputs":[],"name":"owner","outputs":[{"internalType":"address","name":"","type":"address"}],"stateMutability":"view","type":"function"},{"inputs":[],"name":"repsRewardRate","outputs":[{"internalType":"uint256","name":"","type":"uint256"}],"stateMutability":"view","type":"function"},{"inputs":[{"internalType":"address","name":"user","type":"address"},{"internalType":"uint256","name":"reps","type":"uint256"},{"internalType":"uint256","name":"weight","type":"uint256"},{"internalType":"uint256","name":"time","type":"uint256"},{"internalType":"uint256","name":"distance","type":"uint256"}],"name":"rewardWorkout","outputs":[],"stateMutability":"nonpayable","type":"function"},{"inputs":[],"name":"timeRewardRate","outputs":[{"internalType":"uint256","name":"","type":"uint256"}],"stateMutability":"view","type":"function"},{"inputs":[],"name":"weightRewardRate","outputs":[{"internalType":"uint256","name":"","type":"uint256"}],"stateMutability":"view","type":"function"}],"evm":{"bytecode":{"linkReferences":{},"object":"6080346100ac57601f6104db38819003918201601f19168301916001600160401b038311848410176100b1578084926020946040528339810103126100ac57516001600160a01b038116908190036100ac57670de0b6b3a7640000600255671bc16d674ec80000600355674563918244f40000600455678ac7230489e8000060055560018060a01b0319908160005416176000553390600154161760015560405161041390816100c88239f35b600080fd5b634e487b7160e01b600052604160045260246000fdfe608060408181526004918236101561001657600080fd5b600092833560e01c9182632b99fb7c14610336575081633e8fdd6d146101665781634dd67fe0146101475781637196d3e2146101115781638da5cb5b146100e857816390c1241d146100c9578163ba93d745146100a7575063edcea0bc1461007d57600080fd5b346100a357816003193601126100a357905490516001600160a01b039091168152602090f35b5080fd5b9050346100c557826003193601126100c55760209250549051908152f35b8280fd5b5050346100a357816003193601126100a3576020906002549051908152f35b5050346100a357816003193601126100a35760015490516001600160a01b039091168152602090f35b828434610144576080366003190112610144575061013d60209260643590604435906024359035610388565b9051908152f35b80fd5b5050346100a357816003193601126100a3576020906005549051908152f35b9050346100c55760a03660031901126100c5576001600160a01b0381358181169290839003610332576024356044356064359160843593856001541633036102fe576101b485858585610388565b9586156102bb579060208a9283541660448b518095819363a9059cbb60e01b83528d878401528c60248401525af180156102b157610239575b5050908660c096959493927f253ce5895d81ae752d6bae45374665669e37f3187b6ded164348f39f522fc02c985196875260208701528501526060840152608083015260a0820152a180f35b602097969594939297903d82116102a9575b601f8201601f191683019067ffffffffffffffff821184831017610296575060209183918b528101031261029257518015150361028e57909192939438806101ed565b8780fd5b8880fd5b634e487b7160e01b8c526041905260248bfd5b3d915061024b565b89513d8c823e3d90fd5b885162461bcd60e51b8152602081840152601a60248201527f4e6f2072657761726420666f72207468697320776f726b6f75740000000000006044820152606490fd5b606490602089519162461bcd60e51b8352820152600e60248201526d139bdd08185d5d1a1bdc9a5e995960921b6044820152fd5b8480fd5b8490346100a357816003193601126100a3576020906003548152f35b8181029291811591840414171561036557565b634e487b7160e01b600052601160045260246000fd5b9190820180921161036557565b926103d56103d592936103cf6103c16103b46103aa6103da9960025490610352565b9760035490610352565b92603c6004549104610352565b936103e86005549104610352565b9461037b565b61037b565b9056fea2646970667358221220ea4a6eaf2b3b69339d50ad08956642be894b544d8ab30f0c7738f81267c1ca8b64736f6c63430008140033","opcodes":"PUSH1 0x80 CALLVALUE PUSH2 0xAC JUMPI PUSH1 0x1F PUSH2 0x4DB CODESIZE DUP2 SWAP1 SUB SWAP2 DUP3 ADD PUSH1 0x1F NOT AND DUP4 ADD SWAP2 PUSH1 0x1 PUSH1 0x1 PUSH1 0x40 SHL SUB DUP4 GT DUP5 DUP5 LT OR PUSH2 0xB1 JUMPI DUP1 DUP5 SWAP3 PUSH1 0x20 SWAP5 PUSH1 0x40 MSTORE DUP4 CODECOPY DUP2 ADD SUB SLT PUSH2 0xAC JUMPI MLOAD PUSH1 0x1 PUSH1 0x1 PUSH1 0xA0 SHL SUB DUP2 AND SWAP1 DUP2 SWAP1 SUB PUSH2 0xAC JUMPI PUSH8 0xDE0B6B3A7640000 PUSH1 0x2 SSTORE PUSH8 0x1BC16D674EC80000 PUSH1 0x3 SSTORE PUSH8 0x4563918244F40000 PUSH1 0x4 SSTORE PUSH8 0x8AC7230489E80000 PUSH1 0x5 SSTORE PUSH1 0x1 DUP1 PUSH1 0xA0 SHL SUB NOT SWAP1 DUP2 PUSH1 0x0 SLOAD AND OR PUSH1 0x0 SSTORE CALLER SWAP1 PUSH1 0x1 SLOAD AND OR PUSH1 0x1 SSTORE PUSH1 0x40 MLOAD PUSH2 0x413 SWAP1 DUP2 PUSH2 0xC8 DUP3 CODECOPY RETURN JUMPDEST PUSH1 0x0 DUP1 REVERT JUMPDEST PUSH4 0x4E487B71 PUSH1 0xE0 SHL PUSH1 0x0 MSTORE PUSH1 0x41 PUSH1 0x4 MSTORE PUSH1 0x24 PUSH1 0x0 REVERT INVALID PUSH1 0x80 PUSH1 0x40 DUP2 DUP2 MSTORE PUSH1 0x4 SWAP2 DUP3 CALLDATASIZE LT ISZERO PUSH2 0x16 JUMPI PUSH1 0x0 DUP1 REVERT JUMPDEST PUSH1 0x0 SWAP3 DUP4 CALLDATALOAD PUSH1 0xE0 SHR SWAP2 DUP3 PUSH4 0x2B99FB7C EQ PUSH2 0x336 JUMPI POP DUP2 PUSH4 0x3E8FDD6D EQ PUSH2 0x166 JUMPI DUP2 PUSH4 0x4DD67FE0 EQ PUSH2 0x147 JUMPI DUP2 PUSH4 0x7196D3E2 EQ PUSH2 0x111 JUMPI DUP2 PUSH4 0x8DA5CB5B EQ PUSH2 0xE8 JUMPI DUP2 PUSH4 0x90C1241D EQ PUSH2 0xC9 JUMPI DUP2 PUSH4 0xBA93D745 EQ PUSH2 0xA7 JUMPI POP PUSH4 0xEDCEA0BC EQ PUSH2 0x7D JUMPI PUSH1 0x0 DUP1 REVERT JUMPDEST CALLVALUE PUSH2 0xA3 JUMPI DUP2 PUSH1 0x3 NOT CALLDATASIZE ADD SLT PUSH2 0xA3 JUMPI SWAP1 SLOAD SWAP1 MLOAD PUSH1 0x1 PUSH1 0x1 PUSH1 0xA0 SHL SUB SWAP1 SWAP2 AND DUP2 MSTORE PUSH1 0x20 SWAP1 RETURN JUMPDEST POP DUP1 REVERT JUMPDEST SWAP1 POP CALLVALUE PUSH2 0xC5 JUMPI DUP3 PUSH1 0x3 NOT CALLDATASIZE ADD SLT PUSH2 0xC5 JUMPI PUSH1 0x20 SWAP3 POP SLOAD SWAP1 MLOAD SWAP1 DUP2 MSTORE RETURN JUMPDEST DUP3 DUP1 REVERT JUMPDEST POP POP CALLVALUE PUSH2 0xA3 JUMPI DUP2 PUSH1 0x3 NOT CALLDATASIZE ADD SLT PUSH2 0xA3 JUMPI PUSH1 0x20 SWAP1 PUSH1 0x2 SLOAD SWAP1 MLOAD SWAP1 DUP2 MSTORE RETURN JUMPDEST POP POP CALLVALUE PUSH2 0xA3 JUMPI DUP2 PUSH1 0x3 NOT CALLDATASIZE ADD SLT PUSH2 0xA3 JUMPI PUSH1 0x1 SLOAD SWAP1 MLOAD PUSH1 0x1 PUSH1 0x1 PUSH1 0xA0 SHL SUB SWAP1 SWAP2 AND DUP2 MSTORE PUSH1 0x20 SWAP1 RETURN JUMPDEST DUP3 DUP5 CALLVALUE PUSH2 0x144 JUMPI PUSH1 0x80 CALLDATASIZE PUSH1 0x3 NOT ADD SLT PUSH2 0x144 JUMPI POP PUSH2 0x13D PUSH1 0x20 SWAP3 PUSH1 0x64 CALLDATALOAD SWAP1 PUSH1 0x44 CALLDATALOAD SWAP1 PUSH1 0x24 CALLDATALOAD SWAP1 CALLDATALOAD PUSH2 0x388 JUMP JUMPDEST SWAP1 MLOAD SWAP1 DUP2 MSTORE RETURN JUMPDEST DUP1 REVERT JUMPDEST POP POP CALLVALUE PUSH2 0xA3 JUMPI DUP2 PUSH1 0x3 NOT CALLDATASIZE ADD SLT PUSH2 0xA3 JUMPI PUSH1 0x20 SWAP1 PUSH1 0x5 SLOAD SWAP1 MLOAD SWAP1 DUP2 MSTORE RETURN JUMPDEST SWAP1 POP CALLVALUE PUSH2 0xC5 JUMPI PUSH1 0xA0 CALLDATASIZE PUSH1 0x3 NOT ADD SLT PUSH2 0xC5 JUMPI PUSH1 0x1 PUSH1 0x1 PUSH1 0xA0 SHL SUB DUP2 CALLDATALOAD DUP2 DUP2 AND SWAP3 SWAP1 DUP4 SWAP1 SUB PUSH2 0x332 JUMPI PUSH1 0x24 CALLDATALOAD PUSH1 0x44 CALLDATALOAD PUSH1 0x64 CALLDATALOAD SWAP2 PUSH1 0x84 CALLDATALOAD SWAP4 DUP6 PUSH1 0x1 SLOAD AND CALLER SUB PUSH2 0x2FE JUMPI PUSH2 0x1B4 DUP6 DUP6 DUP6 DUP6 PUSH2 0x388 JUMP JUMPDEST SWAP6 DUP7 ISZERO PUSH2 0x2BB JUMPI SWAP1 PUSH1 0x20 DUP11 SWAP3 DUP4 SLOAD AND PUSH1 0x44 DUP12 MLOAD DUP1 SWAP6 DUP2 SWAP4 PUSH4 0xA9059CBB PUSH1 0xE0 SHL DUP4 MSTORE DUP14 DUP8 DUP5 ADD MSTORE DUP13 PUSH1 0x24 DUP5 ADD MSTORE GAS CALL DUP1 ISZERO PUSH2 0x2B1 JUMPI PUSH2 0x239 JUMPI JUMPDEST POP POP SWAP1 DUP7 PUSH1 0xC0 SWAP7 SWAP6 SWAP5 SWAP4 SWAP3 PUSH32 0x253CE5895D81AE752D6BAE45374665669E37F3187B6DED164348F39F522FC02C SWAP9 MLOAD SWAP7 DUP8 MSTORE PUSH1 0x20 DUP8 ADD MSTORE DUP6 ADD MSTORE PUSH1 0x60 DUP5 ADD MSTORE PUSH1 0x80 DUP4 ADD MSTORE PUSH1 0xA0 DUP3 ADD MSTORE LOG1 DUP1 RETURN JUMPDEST PUSH1 0x20 SWAP8 SWAP7 SWAP6 SWAP5 SWAP4 SWAP3 SWAP8 SWAP1 RETURNDATASIZE DUP3 GT PUSH2 0x2A9 JUMPI JUMPDEST PUSH1 0x1F DUP3 ADD PUSH1 0x1F NOT AND DUP4 ADD SWAP1 PUSH8 0xFFFFFFFFFFFFFFFF DUP3 GT DUP5 DUP4 LT OR PUSH2 0x296 JUMPI POP PUSH1 0x20 SWAP2 DUP4 SWAP2 DUP12 MSTORE DUP2 ADD SUB SLT PUSH2 0x292 JUMPI MLOAD DUP1 ISZERO ISZERO SUB PUSH2 0x28E JUMPI SWAP1 SWAP2 SWAP3 SWAP4 SWAP5 CODESIZE DUP1 PUSH2 0x1ED JUMP JUMPDEST DUP8 DUP1 REVERT JUMPDEST DUP9 DUP1 REVERT JUMPDEST PUSH4 0x4E487B71 PUSH1 0xE0 SHL DUP13 MSTORE PUSH1 0x41 SWAP1 MSTORE PUSH1 0x24 DUP12 REVERT JUMPDEST RETURNDATASIZE SWAP2 POP PUSH2 0x24B JUMP JUMPDEST DUP10 MLOAD RETURNDATASIZE DUP13 DUP3 RETURNDATACOPY RETURNDATASIZE SWAP1 REVERT JUMPDEST DUP9 MLOAD PUSH3 0x461BCD PUSH1 0xE5 SHL DUP2 MSTORE PUSH1 0x20 DUP2 DUP5 ADD MSTORE PUSH1 0x1A PUSH1 0x24 DUP3 ADD MSTORE PUSH32 0x4E6F2072657761726420666F72207468697320776F726B6F7574000000000000 PUSH1 0x44 DUP3 ADD MSTORE PUSH1 0x64 SWAP1 REVERT JUMPDEST PUSH1 0x64 SWAP1 PUSH1 0x20 DUP10 MLOAD SWAP2 PUSH3 0x461BCD PUSH1 0xE5 SHL DUP4 MSTORE DUP3 ADD MSTORE PUSH1 0xE PUSH1 0x24 DUP3 ADD MSTORE PUSH14 0x139BDD08185D5D1A1BDC9A5E9959 PUSH1 0x92 SHL PUSH1 0x44 DUP3 ADD MSTORE REVERT JUMPDEST DUP5 DUP1 REVERT JUMPDEST DUP5 SWAP1 CALLVALUE PUSH2 0xA3 JUMPI DUP2 PUSH1 0x3 NOT CALLDATASIZE ADD SLT PUSH2 0xA3 JUMPI PUSH1 0x20 SWAP1 PUSH1 0x3 SLOAD DUP2 MSTORE RETURN JUMPDEST DUP2 DUP2 MUL SWAP3 SWAP2 DUP2 ISZERO SWAP2 DUP5 DIV EQ OR ISZERO PUSH2 0x365 JUMPI JUMP JUMPDEST PUSH4 0x4E487B71 PUSH1 0xE0 SHL PUSH1 0x0 MSTORE PUSH1 0x11 PUSH1 0x4 MSTORE PUSH1 0x24 PUSH1 0x0 REVERT JUMPDEST SWAP2 SWAP1 DUP3 ADD DUP1 SWAP3 GT PUSH2 0x365 JUMPI JUMP JUMPDEST SWAP3 PUSH2 0x3D5 PUSH2 0x3D5 SWAP3 SWAP4 PUSH2 0x3CF PUSH2 0x3C1 PUSH2 0x3B4 PUSH2 0x3AA PUSH2 0x3DA SWAP10 PUSH1 0x2 SLOAD SWAP1 PUSH2 0x352 JUMP JUMPDEST SWAP8 PUSH1 0x3 SLOAD SWAP1 PUSH2 0x352 JUMP JUMPDEST SWAP3 PUSH1 0x3C PUSH1 0x4 SLOAD SWAP2 DIV PUSH2 0x352 JUMP JUMPDEST SWAP4 PUSH2 0x3E8 PUSH1 0x5 SLOAD SWAP2 DIV PUSH2 0x352 JUMP JUMPDEST SWAP5 PUSH2 0x37B JUMP JUMPDEST PUSH2 0x37B JUMP JUMPDEST SWAP1 JUMP INVALID LOG2 PUSH5 0x6970667358 0x22 SLT KECCAK256 0xEA 0x4A PUSH15 0xAF2B3B69339D50AD08956642BE894B SLOAD 0x4D DUP11 0xB3 0xF 0xC PUSH24 0x38F81267C1CA8B64736F6C63430008140033000000000000 "},"methodIdentifiers":{"calculateReward(uint256,uint256,uint256,uint256)":"7196d3e2","distanceRewardRate()":"4dd67fe0","gwcToken()":"edcea0bc","owner()":"8da5cb5b","repsRewardRate()":"90c1241d","rewardWorkout(address,uint256,uint256,uint256,uint256)":"3e8fdd6d","timeRewardRate()":"ba93d745","weightRewardRate()":"2b99fb7c"}}}}}